:1000000010C02AC029C028C027C026C025C024C0CF
:1000100023C022C021C097C21FC01EC01DC01CC06B
:100020001BC011241FBECFE5D1E0DEBFCDBF10E065
:10003000A0E6B0E0E6EFF8E002C005900D92A4372C
:10004000B107D9F710E0A4E7B0E001C01D92A738CE
:10005000B107E1F73ED34DC4D3CF1F933091780061
:10006000832F90E0A0E0B0E0BA2FA92F982F882727
:1000700020917700820F911DA11DB11D4427582F9B
:10008000692F7A2F80918600480F511D611D711DC7
:1000900037FD7F6FCB01BA0125E630E040E050E04C
:1000A0007AD3F5E09595879577956795FA95D1F789
:1000B0006F5F7F4F8F4F9F4F209180003091810065
:1000C000409182005091830095958795779567952B
:1000D00062D39B01AC01CA0128EE33E040E050E05E
:1000E00086D3B901CA012091850030E040E050E09C
:1000F0007ED3B901FA01DA01C9018153984FAF4F9C
:10010000BF4F8F599F40A040B04078F48091850048
:10011000813019F482E080938500CF012AE030E03D
:1001200040E050E064D383E01FC0809185008130BF
:1001300019F081E080938500215E314B4F4F5F4F76
:100140002F533C494040504040F4CF0124E630E07A
:1001500040E050E04CD382E007C0CF0128EE33E00E
:1001600040E050E044D381E080938400C9011F91B6
:1001700008959C01462F10927A0010927B001092F5
:100180007C0010927D001092740081E080937000DA
:1001900037FF05C0309521953F4F80937400C9010A
:1001A0006AE070E011D3FC01E05AFF4F8081809338
:1001B0007A00C9016AE070E007D39B01CB016AE0D5
:1001C00070E002D3FC01E05AFF4F808180937B00F6
:1001D000C9016AE070E0F8D29B01CB016AE070E0EF
:1001E000F3D2FC01E05AFF4F808180937C00C9016B
:1001F0006AE070E0E9D2CB016AE070E0E5D2FC0190
:10020000E05AFF4F808180937D00809170008130A3
:1002100039F480917D008F3619F410927D0002C070
:100220001092700080917400813029F480917D00DB
:10023000806880937D00E42FF0E0E658FF4F8081D6
:1002400080618083089510927A0010927B00109252
:100250007C0010927D001092740010927000FC01DE
:10026000E05AFF4F808180937C000895582FD69AE2
:1002700090E820E030E046E0892F852311F0DE9AF7
:1002800001C0DE98DD98842F8A95F1F7DD9A842FDE
:100290008A95F1F7913009F0DD9896952F5F3F4FE1
:1002A0002830310549F7D6988BB380648F7D8BBB9E
:1002B00082E48A95F1F7DD9A86E08A95F1F789B3B1
:1002C000DD9890E036E0969587953A95E1F7817054
:1002D0000895682FD698DE9A92E49A95F1F740E84F
:1002E00080E020E030E056E0DD98952F9A95F1F718
:1002F000DD9ACE99842B952F9A95F1F7DD98469546
:100300002F5F3F4F2830310579F7DD98613031F4A8
:1003100096E09A95F1F7D69ADE9803C092E49A9502
:10032000F1F7DD9A96E09A95F1F7DD98D698DE9A86
:10033000089517BA18BAD69ADD9886E0982F9A953C
:10034000F1F7DE9A982F9A95F1F7DD9A982F9A9502
:10035000F1F7DE98982F9A95F1F7DD988A95F1F7E5
:100360008091760083DF80918500823039F0833080
:1003700058F0843029F0883039F404C08DE005C08D
:100380008EE003C08FE001C08CE070DFD69ADD986C
:1003900086E0982F9A95F1F7DE98982F9A95F1F7C5
:1003A000DD9A982F9A95F1F7DE9A8A95F1F78FEFFB
:1003B00088BB87BB08951F9317BA18BAD69ADD98E1
:1003C00016E0812F8A95F1F7DE9A812F8A95F1F751
:1003D000DD9A812F8A95F1F7DE98812F8A95F1F7C2
:1003E000DD98812F8A95F1F78091760081603EDF5C
:1003F00081E06FDF8093780081E06BDF809377008E
:1004000081E067DF8093860080E063DF809379007E
:10041000D69ADD98812F8A95F1F7DE98812F8A95FB
:10042000F1F7DD9A812F8A95F1F7DE9A1A95F1F7A7
:100430008FEF88BB87BB1F9108950F931F9317BA47
:1004400018BAD79ADF9A10ED06E0D69ADD98802F79
:100450008A95F1F7DE9A802F8A95F1F7DD9A802F41
:100460008A95F1F7DE98802F8A95F1F7DD98802F35
:100470008A95F1F7812FFADED69ADD98902F9A951A
:10048000F1F7DE98902F9A95F1F7DD9A902F9A95D3
:10049000F1F7DE9A902F9A95F1F7882311F4DF98FF
:1004A00005C0DF9A1E5F103E09F0CFCFDF9A8FEFB5
:1004B00088BB87BB1F3D08F010E0812F1F910F9173
:1004C000089517BA18BAD69ADD9886E0982F9A95AB
:1004D000F1F7DE9A982F9A95F1F7DD9A982F9A9571
:1004E000F1F7DE98982F9A95F1F7DD988A95F1F754
:1004F00080917600BBDE80918500823039F08330B8
:1005000058F0843029F0883039F404C08DE805C0F3
:100510008EE803C08FE801C08CE8A8DED69ADD988B
:1005200086E0982F9A95F1F7DE98982F9A95F1F733
:10053000DD9A982F9A95F1F7DE9A8A95F1F78FEF69
:1005400088BB87BB08951F920F920FB60F9211249C
:100550002F938F939F93EF93FF938FEF88BB8ABB6B
:1005600087BBDD9896E0892F8A95F1F7E0917500B9
:10057000F0E0E658FF4F80818F7D8BBB892F8A95F5
:10058000F1F72BB3E0917500F0E0E658FF4F808162
:100590008072822B8BBB9A95F1F7E0917500F0E0A9
:1005A000E659FF4F8081809588BB809175008F5FF1
:1005B0008093750080917500843011F4109275005D
:1005C000FF91EF919F918F912F910F900FBE0F9000
:1005D0001F901895EF92FF920F931F93CF93DF9385
:1005E00001E010E0C9E1D0E06CDF80EA9FE0FE01AD
:1005F0003197F1F70197D9F7DEDE0F5F1F4F043116
:10060000110591F75EDF80EA9FE029E130E0F90112
:100610003197F1F70197D9F7CEDE30917800832F2B
:1006200090E0A0E0B0E0BA2FA92F982F8827209162
:100630007700820F911DA11DB11D4427582F692FEE
:100640007A2F80918600480F511D611D711D37FD65
:100650007F6FCB01BA0125E630E040E050E09BD04F
:100660007B018C0160E070EA85E296E29701A801C7
:10067000BED079018A01D801C70184589340A040B7
:10068000B040893C9105A105B10520F082E090E0E1
:10069000DADD1DC08091710090917200B801A70150
:1006A00011D184E090E061E2FFD0E0928000F0920E
:1006B00081000093820010938300809180009091CC
:1006C0008100A0918200B091830060E052DD7894B7
:1006D000FFCF0F931F93CF93DF938FEF8ABB87BB1F
:1006E000ACDE80937600882319F481E090E0ABDDE6
:1006F00082E083BF11E019BF84E090E0C9D0082FE9
:100700008091710090917200CBD0609380007093C3
:1007100081008093820090938300809176008823EB
:1007200031F01093850005DE002309F453DF78943F
:10073000809176008823E1F0C4E0D6EAF8943BDEAD
:1007400078948BDC8C01F894F4DDBBDE7894CE01D8
:100750000197F1F7F89420918400C8016AE070E0F5
:1007600008D0622F06DD7894CE010197F1F7E6CF2D
:10077000FFCF5527002480FF02C0060E571F660FCB
:10078000771F6115710521F096958795009799F768
:10079000952F802D0895FF27EE27BB27AA2760FFFE
:1007A00004C0A20FB31FE41FF51F220F331F441F05
:1007B000551F969587957795679589F700977607E2
:1007C00071F7CF01BD01089597FB092E07260AD0C6
:1007D00077FD04D027D006D000201AF470956195DB
:1007E0007F4F0895F6F7909581959F4F089597FB59
:1007F000092E05260ED057FD04D028D00AD0001CA3
:1008000038F450954095309521953F4F4F4F5F4FAD
:100810000895F6F790958095709561957F4F8F4F6D
:100820009F4F0895AA1BBB1B51E107C0AA1FBB1F06
:10083000A617B70710F0A61BB70B881F991F5A956C
:10084000A9F780959095BC01CD010895A1E21A2EDB
:10085000AA1BBB1BFD010DC0AA1FBB1FEE1FFF1F64
:10086000A217B307E407F50720F0A21BB30BE40BB4
:10087000F50B661F771F881F991F1A9469F76095FB
:100880007095809590959B01AC01BD01CF010895B5
:10089000E199FECF1FBA8EBBE09A99278DB30895D8
:1008A000A6E1B0E044E018C0262FE199FECF1CBAC3
:1008B0001FBA8EBB2DBB0FB6F894E29AE19A0FBE19
:1008C00001960895242FF1DF252FEFDF00C0ECDF24
:1008D000272FEBCFDC01862FE82FE199FECF1FBA3F
:1008E00005C0EEBBE09AE3950DB20D924150C8F7FA
:0608F0000895F894FFCF0B
:1008F6006F0AC7CBAAE9ED0BEFEB080204018010E3
:0409060001050000E7
:00000001FF
